S00E00005241364D33452E7372656388
S315000000005006FE1FA911000091100000A511000066
S31500000010A5110000A5110000A5110000A511000002
S31500000020000000000000000000000000A511000014
S31500000030A511000000000000A5110000A511000098
S31500000040110B0000810A0000A10B0000E90B000063
S31500000050000000000000000000000000000000009A
S31500000060000000000000000000000000000000008A
S31500000070000000000000000000000000000000007A
S31500000080000000000000000000000000000000006A
S31500000400FFFFFFFFFFFDFFFFFCFFFFFFFFFFFFFFFB
S31500000410FCFFFFFFFFFFFFFFFCFFFF00FFFFFF00EA
S31500000420FCFF0F20FFFF0F20FCFF7F40FFFF7F40F8
S31500000430FCFF0D40FFFF0D40FFFFFFFFFFFFFFFF2B
S31500000440FFFFFFFFFFFFFFFFFFFFFFFFFFFFFFFFB6
S31500000450FFFFFFFFFFFFFFFFFFFFFFFFFFFFFFFFA6
S31500000460FFFFFFFFFFFFFFFFFFFFFFFFFFFFFFFF96
S31500000470FFFFFFFFFFFFFFFFFFFFFFFFFFFFFFFF86
S31500000480FFFFFFFFFFFFFFFFFFFFFFFFFFFFFFFF76
S31500000490FFFFFFFFFFFFFFFFFFFFFFFFFFFFFFFF66
S315000004A0FFFFFFFFFFFFFFFFFFFFFFFFFFFFFFFF56
S315000004B0FFFFFFFFFFFFFFFFFFFFFFFFFFFFFFFF46
S315000004C0FFFFFFFFFFFFFFFFFFFFFFFFFFFFFFFF36
S315000004D0FFFFFFFFFFFFFFFFFFFFFFFFFFFFFFFF26
S315000004E0FFFFFFFFFFFFFFFFFFFFFFFFFFFFFFFF16
S315000004F0FFFFFFFFFFFFFFFFFFFFFFFFFFFFFFFF06
S3150000050010B5054C237833B9044B13B10448AFF347
S3150000051000800123237010BD2800FE1F000000008C
S315000005205014000008B5034B1BB103490348AFF351
S31500000530008008BD000000002C00FE1F50140000C3
S3150000054080B582B07423424942488DF8073000F0E6
S31500000550E5F8414CDFF81081404E414F012501225C
S3150000056040F20921404600F07BFB4FF47A714FF4CC
S31500000570FA7000F05FFD002240F20921404600F0CB
S315000005806FFB4FF47A714FF4FA7000F053FDEFF3FE
S31500000590108285F3108823681BB932494020CB703E
S315000005A0C87023680133236082F31088D6F8A83018
S315000005B03B4043F00503C6F8A830EFF3108285F3FD
S315000005C01088236813B12368013B236023681BB995
S315000005D024498020CB70C87082F310884FF47A715A
S315000005E04FF4FA7000F026FDEFF3108285F31088C1
S315000005F023681BB91B494020CB70C87023680133A0
S31500000600236082F31088D6F8A8303B4043F00403F9
S31500000610C6F8A830EFF3108285F31088236813B16B
S315000006202368013B236023681BB90E498020CB70E9
S31500000630C87082F310884FF47A714FF4FA7000F0A4
S31500000640F9FC01220DF10701024800F021F886E7C6
S31500000650041300004C00FE1FBC00FE1F00080440EF
S31500000660FE3FFEFF000D04404400FE1F022800D09E
S3150000067070470249024800F0DDBB00BF3813000096
S315000006804400FE1F08B5FFF75BFF002008BD00BF52
S3150000069010B4046AA37803F07B03A370837803F095
S315000006A00303D21A0B440261A278C360837803F075
S315000006B0030342F08002022BA27005D00B78E37090
S315000006C000205DF8044B70470B8843F47E43E381BA
S315000006D000205DF8044B7047F0B5846A85B0054686
S315000006E00F4694466E46B4B194E80F0086E80F00B4
S315000006F0EB691B7884F804C02360EB6A2046C4E9E2
S3150000070002736B6A9847AC6A1CB196E80F0084E8DE
S315000007100F0005B0F0BD3446EAE700BFF0B50B7830
S315000007200022027003F100734C69446203F56053C2
S315000007308C695B01C0E907138378C0E90A240125A7
S3150000074065F3010383704B7823B98378022262F341
S315000007500103837091F90B50C44A8E7A6B092033DA
S3150000076005F01F07012404FA07F742F82370BFF3C8
S315000007704F8FBFF36F8FBE4B05F1C00753F827C0ED
S315000007806FF3104C43F827C053F82770B94F02EBAC
S31500000790050C3601F6B28CF8006347F8250091F98E
S315000007A005500E794FEA551C0CF1200C05F01F0E72
S315000007B004FA0EFE42F82CE0BFF34F8FBFF36F8FA3
S315000007C005F1C00C53F82CE06FF3104E43F82CE003
S315000007D053F82CC002EB050C3601F6B28CF8006318
S315000007E047F8250091F907508E794FEA551C0CF110
S315000007F0200C05F01F0E04FA0EFE42F82CE0BFF3A3
S315000008004F8FBFF36F8F05F1C00C53F82CE06FF3D9
S31500000810104E43F82CE053F82CC002EB050C3601C1
S31500000820F6B28CF8006347F8250091F909500E7A64
S315000008304FEA551C0CF1200C05F01F0E04FA0EFEB3
S3150000084042F82CE0BFF34F8FBFF36F8F05F1C00C5A
S3150000085053F82CE06FF3104E43F82CE053F82C308D
S3150000086033012A44DBB282F8003347F82500EFF360
S31500000870108584F31088804B0E78D3F800214FF052
S315000008800044F44022EA0402C3F80021D3F8003100
S3150000089085F31088036A00229A701A715A729A7246
S315000008A0DA725A830C7840F2FF32E240D20744BF34
S315000008B04022DA7406221A770A784D788E7840F24A
S315000008C0FF34D440E707CA78C96944BF4FF4784477
S315000008D09C82D200032D42EA061200F0C280002D4F
S315000008E014BFF224E224D2B21A709C710A7B520021
S315000008F002F002025A734A788C78D201640104F03D
S315000009002004D2B2224300241C7291F800E0AEF11A
S315000009100204012C40F29B80D2B2DA714A689478C4
S315000009205C701C78557865F301041C70D4789C744F
S315000009301278DC7902F05C0204F0A3042243DA7137
S315000009400022C36902618261C260426193F9055067
S31500000950474B05F1C00453F8246062F3104643F890
S31500000960246053F82440BFF35F8F6C09A40004F1A0
S31500000970604405F01F0604F56144012505FA06F6F4
S31500000980C4F880612660C46994F90BC00CF1C004F8
S3150000099053F8246062F3104643F8246053F8244069
S315000009A0BFF35F8F4FEA5C14A40004F160440CF0BF
S315000009B01F0C04F5614405FA0CF6C4F88061266044
S315000009C0C46994F9074004F1C00653F8267062F32F
S315000009D0104743F8267053F82660BFF35F8F4FEA3F
S315000009E0541C4FEA8C0C0CF1604C0CF5614C04F075
S315000009F01F0405FA04F4CCF88041CCF80040C46921
S31500000A0094F9094004F1C00653F8267062F31047C2
S31500000A1043F8267053F82630BFF35F8F63099B00B7
S31500000A2003F1604304F01F0403F56143A540C3F8D6
S31500000A3080511D60036A49890EF0030E4EF0700E58
S31500000A4083F802E00D4B018143601046F0BDBEF114
S31500000A50020F08BF42F01002FF24D2B25C70DA71B6
S31500000A606EE742F04002F2243DE700BF00E100E0FD
S31500000A7000600040C000FE1F006F0440554943530C
S31500000A8030B4EFF30383103B5BB203F1C0011E4A9F
S31500000A9052F821006FF3104042F8210052F821204D
S31500000AA01A4A52F82300C3691B691BB103691BB1BB
S31500000AB030BC704703697BB9D0E90824937803F00A
S31500000AC07F03002143F004039370C160002CEFD034
S31500000AD030BC8022FFF700BE827802F003010229B3
S31500000AE0C1680BD0046A91F800C084F803C002F014
S31500000AF003029B1A0A44C0E90323D8E70C88056A57
S31500000B0044F47E44EC81F2E700600040C000FE1F22
S31500000B1010B582B0EFF30383103B5BB203F1C00163
S31500000B201D4A52F821006FF3104042F8210052F896
S31500000B3021201A4A52F82340A27802F00303022B1E
S31500000B40236A0CBF198A5979A3690CBFC1F308013E
S31500000B50C9B2019143B9636AB3B10422204602B017
S31500000B60BDE81040FFF7B8BD02F0030201A96069B5
S31500000B7000F07EFBD4E90521A37803F003031A44B1
S31500000B80C91AC4E9052109B102B010BD636A002B78
S31500000B90FAD00122E2E700BF00600040C000FE1F5D
S31500000BA010B5EFF30383103B0D4A5CB252F82400F4
S31500000BB0D0E90821937803F07B03937019B10222E0
S31500000BC00021FFF789FD074A04F1C00352F82310FC
S31500000BD06FF3104142F8231052F8233010BD00BFC6
S31500000BE0C000FE1F0060004010B5EFF30383103B0A
S31500000BF0194A5CB252F82400837803F00303022BEF
S31500000C00036A0CBF198A597993F804C00CBFC1F363
S31500000C100801C9B21CF0100F0CF0380206D093F888
S31500000C201CC01CF0010F08BF42F0400293F804C03C
S31500000C300CF0C70C83F804C0436A0BB1FFF74CFDF8
S31500000C40064A04F1C00352F823106FF3104142F82C
S31500000C50231052F8233010BDC000FE1F0060004074
S31500000C60C8B2012383404AB91A040B0A5B0103F197
S31500000C70804303F5802300209A6070479AB2F4E718
S31500000C800388002B79D02DE9F04FDFF8F490DFF8D8
S31500000C90F4B083B007464FF000087B68374E4FEA42
S31500000CA0C805591940F20242898891424FF0000462
S31500000CB04FF0010A09D00134032C26D07B6836F8A0
S31500000CC0022B591989889142F5D15B5999F8BB24B1
S31500000CD003F0B853B3F1807F0AFA04F3D9B21CD0FB
S31500000CE013423BD104F120031BF81320D209E2D0B2
S31500000CF01BF813206FF3C7120BF813200121C8202D
S31500000D00013400F097F9032CD8D13B8808F101088B
S31500000D104345C2D803B0BDE8F08F134210D004F1AA
S31500000D2020031BF81320D209C5D11BF8132042F06B
S31500000D3080020BF813200121C82000F07BF9BAE7E6
S31500000D400120019100F004FA99F8BB340199194386
S31500000D5089F8BB14012000F0CBF9E0E701200191EE
S31500000D6000F0F6F999F8BB34019923EA010189F8F4
S31500000D70BB14012000F0BCF9B4E770474214000030
S31500000D8000E0014000400440F8B50446FFF778FF54
S31500000D90EFF31082012383F31088234E33681BB9C7
S31500000DA02249CB704023CB7033680133336082F322
S31500000DB0108825882DB362681D4C013DADB202F145
S31500000DC0080101EBC50500E008311068928810F4AF
S31500000DD0803F4FEA12235FFA82FC0CEB031E09D018
S31500000DE054F82E7020F480326FF3104744F82E70BA
S31500000DF044F82E201B0163448D4244F823000A4622
S31500000E00E2D1EFF31082012383F31088336813B124
S31500000E103368013B336033681BB904498020CB70CB
S31500000E20C87082F31088F8BDBC00FE1F000D044098
S31500000E300008044008B50346034A1A600846FFF74F
S31500000E40A3FF002008BD00BF54524F50064B074970
S31500000E5093F826001A6A51F820300549C2F3026257
S31500000E60D3400B60704700BF00E001400C00FE1F3E
S31500000E704802FE1F38B53B493B4B3C4C3C4A0020E0
S31500000E804AF20355A3F8FE53A1F8000139496160FF
S31500000E90394D3A4922604FF40042C4E9022193F8E1
S31500000EA02610C4E9042554F82120196A344DC1F3EB
S31500000EB00261CA4009212A6083F8130483F8A2104C
S31500000EC093F88024002A44D0274A0023062182F87A
S31500000ED0813482F8803482F8A51082F8323092F894
S31500000EE03C301907FBD5002342F20171118582F8C7
S31500000EF02A301D4B93F83C209206FBD5194A022155
S31500000F0082F81C111F491962052183F8261093F8EF
S31500000F10261054F821001C6AC4F30264E0402860DD
S31500000F20012140244FF4254083F8301083F85210F5
S31500000F3083F8531083F82440A3F8FE03A2F80411A3
S31500000F40B2F804319BB2002BFAD10123A2F800318A
S31500000F5038BD012183F8801440F2C44000F06AF8DD
S31500000F60B2E700BF00C0014000E001400C00FE1FD8
S31500000F70002D310100127A00001C4E0E00366E0163
S31500000F804802FE1F2112012138B5244C002584F8A1
S31500000F9028500121C82000F04DF884F8245094F818
S31500000FA02430002BFBD194F824301C4A43F0020372
S31500000FB084F8243092F82430C3F340009B07F9D418
S31500000FC082F8220092F84030144960F3C71382F881
S31500000FD0403091F84030DB09FBD191F842000F4ACE
S31500000FE063F3C71081F8420092F84230DB09FBD167
S31500000FF092F84400094963F3C71082F8440091F857
S315000010004430DC09FBD1012000F0A2F8044B01209A
S3150000101083F8BB44BDE8384000F06AB8004004409D
S3150000102000E00140704700BFA0F101000028FBD19D
S31500001030704700BF30B5144D144A00FB01F14FF460
S315000010407A732868B2FBF0F2A1FB03C44FF0FF30BD
S315000010504FF0000E60457EEB040407D3BCFBF2F0B4
S31500001060800878B1BDE83040FFF7DEBF9200B1FBE3
S31500001070F2F1A1FB031388427EEB0303F2D3084689
S315000010800028EFD130BD00BF4802FE1F00CA9A3BC0
S315000010900B4B70B5B3F840510A4E0024ADB225FA99
S315000010A004F3DB07E0B203D556F8243003B19847C2
S315000010B00134102CF3D1024BA3F8305170BD00BFA0
S315000010C0006000407C00FE1F10B4074A074C002356
S315000010D003F1C001013332F8020F44F82100602BFE
S315000010E0F6D15DF8044B70477E13000000600040A7
S315000010F0EFF31081012383F31088124B33F810208D
S3150000110092B22AB133F81020013A92B223F8102095
S3150000111033F810309BB293B90B4A10B4B2F8FE33D1
S315000011200A4C9BB234F8100043F4254323EA00032B
S31500001130A2F8FE3381F310885DF8044B704781F303
S31500001140108870474002FE1F00E00140481400006E
S3150000115030B4EFF31081012383F310880E4A32F87E
S3150000116010309BB26BB90D4C0D4DB4F8FE3335F80B
S3150000117010C09BB243EA0C0343F425439BB2A4F888
S31500001180FE3332F8103001339BB222F8103081F36F
S31500001190108830BC704700BF4002FE1F00E00140CF
S315000011A04814000000BE704708B500F003F8FFF7CA
S315000011B069FAFEE7234B70B54FF47002224DC3F86F
S315000011C0882000209D60FFF751FAFFF753FE0120AB
S315000011D0FFF74CFA1D4B29681D481E4D00244FF49D
S315000011E025429C801A80A1F580629A601A4AD960CD
S315000011F04FF480560121A5F82061121A99802146E4
S3150000120000F044F81548164A1649174D121A00F010
S315000012102FF8164B5B1BA34206DD9E1055F8043BC8
S3150000122001349847A642F9DCFFF710FEFFF7ACFE43
S315000012300220FFF71BFAFFF747FFBDE870400020CA
S31500001240FFF7F0BE00ED00E000000000000D0040DA
S315000012502800FE1F006000404C02FE1F0000FE1F1B
S315000012600C00FE1F541400000400FE1F0800FE1FA1
S315000012700A44914200F1FF3300D1704710B511F8CE
S31500001280014B03F8014F9142F9D110BD02440346C8
S31500001290934200D1704703F8011BF9E74275696C68
S315000012A07420776974682052656E65736173204196
S315000012B06476616E63656420466C657869626C6508
S315000012C020536F667477617265205061636B616746
S315000012D0652076657273696F6E20342E352E300068
S315000012E0342E352E3000000000000504F8B500BF8E
S315000012F0F8BC08BC9E467047F8B500BFF8BC08BCF1
S315000013009E467047090200000C000C010C020C03FB
S3150000131000000000000000000000000000000000C7
S3150000132024130000000100000000FE1F0F00FFFF55
S3150000133000000000FFFF000008000000401300004E
S31500001340000001000801000000000105090100007D
S31500001350000001050A010000040000000902000067
S31500001360040000000A020000000001090C0200004F
S31500001370000001090D02000000000100000300004A
S31500001380AA01AB01AC01AD010000000000000000A5
S315000013900000000000000000000000000000000047
S315000013A00000000000000000000000000000000037
S315000013B00000000000000000000000000000000027
S315000013C00000000000000000000000000000000017
S315000013D00000000000000000000000000000000007
S315000013E000000000000000000000000000000000F7
S315000013F000000000000000000000000000000000E7
S3150000140000000000000000000000000000000000D6
S3150000141000000000000000000000000000000000C6
S3150000142000000000000000000000000000000000B6
S3150000143000000000000000000000000000000000A6
S31500001440020403040404FFFF010002000800100068
S309000014500000000092
S31100001454400040002505000001050000D6
S3150100A150FFFFFFFFFFFFFFFFFFFFFFFFFFFFFFFF08
S705000011A940
